{"abi":[{"type":"constructor","inputs":[{"name":"_registry","type":"address","internalType":"address"}],"stateMutability":"nonpayable"},{"type":"function","name":"AUTH_TYPEHASH","inputs":[],"outputs":[{"name":"","type":"bytes32","internalType":"bytes32"}],"stateMutability":"view"},{"type":"function","name":"DOMAIN_SEPARATOR","inputs":[],"outputs":[{"name":"","type":"bytes32","internalType":"bytes32"}],"stateMutability":"view"},{"type":"function","name":"authorize","inputs":[{"name":"signer","type":"address","internalType":"address"},{"name":"proposalHash","type":"bytes32","internalType":"bytes32"},{"name":"signature","type":"bytes","internalType":"bytes"}],"outputs":[{"name":"","type":"bool","internalType":"bool"}],"stateMutability":"nonpayable"},{"type":"function","name":"nonces","inputs":[{"name":"","type":"address","internalType":"address"}],"outputs":[{"name":"","type":"uint256","internalType":"uint256"}],"stateMutability":"view"},{"type":"function","name":"registry","inputs":[],"outputs":[{"name":"","type":"address","internalType":"contract IAresRegistry"}],"stateMutability":"view"},{"type":"event","name":"SignatureUsed","inputs":[{"name":"signer","type":"address","indexed":true,"internalType":"address"},{"name":"proposalHash","type":"bytes32","indexed":false,"internalType":"bytes32"}],"anonymous":false},{"type":"error","name":"ECDSAInvalidSignature","inputs":[]},{"type":"error","name":"ECDSAInvalidSignatureLength","inputs":[{"name":"length","type":"uint256","internalType":"uint256"}]},{"type":"error","name":"ECDSAInvalidSignatureS","inputs":[{"name":"s","type":"bytes32","internalType":"bytes32"}]},{"type":"error","name":"InvalidSignature","inputs":[]},{"type":"error","name":"InvalidSigner","inputs":[]}],"bytecode":{"object":"0x608060405234801561000f575f5ffd5b50604051610ecb380380610ecb833981810160405281019061003191906101a1565b805f5f6101000a81548173ffffffffffffffffffffffffffffffffffffffff021916908373ffffffffffffffffffffffffffffffffffffffff1602179055507f8b73c3c69bb8fe3d512ecc4cf759cc79239f7b179b0ffacaa9a75d522b39400f6040518060400160405280600d81526020017f415245532050726f746f636f6c00000000000000000000000000000000000000815250805190602001206040518060400160405280600181526020017f310000000000000000000000000000000000000000000000000000000000000081525080519060200120463060405160200161012195949392919061020b565b604051602081830303815290604052805190602001206002819055505061025c565b5f5ffd5b5f73ffffffffffffffffffffffffffffffffffffffff82169050919050565b5f61017082610147565b9050919050565b61018081610166565b811461018a575f5ffd5b50565b5f8151905061019b81610177565b92915050565b5f602082840312156101b6576101b5610143565b5b5f6101c38482850161018d565b91505092915050565b5f819050919050565b6101de816101cc565b82525050565b5f819050919050565b6101f6816101e4565b82525050565b61020581610166565b82525050565b5f60a08201905061021e5f8301886101d5565b61022b60208301876101d5565b61023860408301866101d5565b61024560608301856101ed565b61025260808301846101fc565b9695505050505050565b610c62806102695f395ff3fe608060405234801561000f575f5ffd5b5060043610610055575f3560e01c80633644e515146100595780635110ee861461007757806359f89dda146100955780637b103999146100c55780637ecebe00146100e3575b5f5ffd5b610061610113565b60405161006e9190610749565b60405180910390f35b61007f610119565b60405161008c9190610749565b60405180910390f35b6100af60048036038101906100aa919061084f565b61013d565b6040516100bc91906108da565b60405180910390f35b6100cd610430565b6040516100da919061094e565b60405180910390f35b6100fd60048036038101906100f89190610967565b610454565b60405161010a91906109aa565b60405180910390f35b60025481565b7f8a2d1b14c5fbc7c292bb7c4cdb3e6e2576973e8456e21c3dc4fa883d1f1a18d881565b5f5f5f9054906101000a900473ffffffffffffffffffffffffffffffffffffffff1673ffffffffffffffffffffffffffffffffffffffff1663929066f5866040518263ffffffff1660e01b815260040161019791906109d2565b602060405180830381865afa1580156101b2573d5f5f3e3d5ffd5b505050506040513d601f19601f820116820180604052508101906101d69190610a15565b61020c576040517f815e1d6400000000000000000000000000000000000000000000000000000000815260040160405180910390fd5b5f60015f8773ffffffffffffffffffffffffffffffffffffffff1673ffffffffffffffffffffffffffffffffffffffff1681526020019081526020015f205490505f7f8a2d1b14c5fbc7c292bb7c4cdb3e6e2576973e8456e21c3dc4fa883d1f1a18d88787846040516020016102859493929190610a40565b6040516020818303038152906040528051906020012090505f600254826040516020016102b3929190610af7565b6040516020818303038152906040528051906020012090505f6103198288888080601f0160208091040260200160405190810160405280939291908181526020018383808284375f81840152601f19601f82011690508083019250505050505050610469565b90508873ffffffffffffffffffffffffffffffffffffffff168173ffffffffffffffffffffffffffffffffffffffff1614610380576040517f8baa579f00000000000000000000000000000000000000000000000000000000815260040160405180910390fd5b60015f8a73ffffffffffffffffffffffffffffffffffffffff1673ffffffffffffffffffffffffffffffffffffffff1681526020019081526020015f205f8154809291906103cd90610b5a565b91905055508873ffffffffffffffffffffffffffffffffffffffff167fd2846d031b65b394e7e2f39bc3b816c53e302fbc2e960fa5bfd15a7e8ddadb51896040516104189190610749565b60405180910390a26001945050505050949350505050565b5f5f9054906101000a900473ffffffffffffffffffffffffffffffffffffffff1681565b6001602052805f5260405f205f915090505481565b5f5f5f5f6104778686610493565b92509250925061048782826104e8565b82935050505092915050565b5f5f5f60418451036104d3575f5f5f602087015192506040870151915060608701515f1a90506104c58882858561064a565b9550955095505050506104e1565b5f600285515f1b9250925092505b9250925092565b5f60038111156104fb576104fa610ba1565b5b82600381111561050e5761050d610ba1565b5b0315610646576001600381111561052857610527610ba1565b5b82600381111561053b5761053a610ba1565b5b03610572576040517ff645eedf00000000000000000000000000000000000000000000000000000000815260040160405180910390fd5b6002600381111561058657610585610ba1565b5b82600381111561059957610598610ba1565b5b036105dd57805f1c6040517ffce698f70000000000000000000000000000000000000000000000000000000081526004016105d491906109aa565b60405180910390fd5b6003808111156105f0576105ef610ba1565b5b82600381111561060357610602610ba1565b5b0361064557806040517fd78bce0c00000000000000000000000000000000000000000000000000000000815260040161063c9190610749565b60405180910390fd5b5b5050565b5f5f5f7f7fffffffffffffffffffffffffffffff5d576e7357a4501ddfe92f46681b20a0845f1c1115610686575f600385925092509250610727565b5f6001888888886040515f81526020016040526040516106a99493929190610be9565b6020604051602081039080840390855afa1580156106c9573d5f5f3e3d5ffd5b5050506020604051035190505f73ffffffffffffffffffffffffffffffffffffffff168173ffffffffffffffffffffffffffffffffffffffff160361071a575f60015f5f1b93509350935050610727565b805f5f5f1b935093509350505b9450945094915050565b5f819050919050565b61074381610731565b82525050565b5f60208201905061075c5f83018461073a565b92915050565b5f5ffd5b5f5ffd5b5f73ffffffffffffffffffffffffffffffffffffffff82169050919050565b5f6107938261076a565b9050919050565b6107a381610789565b81146107ad575f5ffd5b50565b5f813590506107be8161079a565b92915050565b6107cd81610731565b81146107d7575f5ffd5b50565b5f813590506107e8816107c4565b92915050565b5f5ffd5b5f5ffd5b5f5ffd5b5f5f83601f84011261080f5761080e6107ee565b5b8235905067ffffffffffffffff81111561082c5761082b6107f2565b5b602083019150836001820283011115610848576108476107f6565b5b9250929050565b5f5f5f5f6060858703121561086757610866610762565b5b5f610874878288016107b0565b9450506020610885878288016107da565b935050604085013567ffffffffffffffff8111156108a6576108a5610766565b5b6108b2878288016107fa565b925092505092959194509250565b5f8115159050919050565b6108d4816108c0565b82525050565b5f6020820190506108ed5f8301846108cb565b92915050565b5f819050919050565b5f61091661091161090c8461076a565b6108f3565b61076a565b9050919050565b5f610927826108fc565b9050919050565b5f6109388261091d565b9050919050565b6109488161092e565b82525050565b5f6020820190506109615f83018461093f565b92915050565b5f6020828403121561097c5761097b610762565b5b5f610989848285016107b0565b91505092915050565b5f819050919050565b6109a481610992565b82525050565b5f6020820190506109bd5f83018461099b565b92915050565b6109cc81610789565b82525050565b5f6020820190506109e55f8301846109c3565b92915050565b6109f4816108c0565b81146109fe575f5ffd5b50565b5f81519050610a0f816109eb565b92915050565b5f60208284031215610a2a57610a29610762565b5b5f610a3784828501610a01565b91505092915050565b5f608082019050610a535f83018761073a565b610a6060208301866109c3565b610a6d604083018561073a565b610a7a606083018461099b565b95945050505050565b5f81905092915050565b7f19010000000000000000000000000000000000000000000000000000000000005f82015250565b5f610ac1600283610a83565b9150610acc82610a8d565b600282019050919050565b5f819050919050565b610af1610aec82610731565b610ad7565b82525050565b5f610b0182610ab5565b9150610b0d8285610ae0565b602082019150610b1d8284610ae0565b6020820191508190509392505050565b7f4e487b71000000000000000000000000000000000000000000000000000000005f52601160045260245ffd5b5f610b6482610992565b91507fffffffffffffffffffffffffffffffffffffffffffffffffffffffffffffffff8203610b9657610b95610b2d565b5b600182019050919050565b7f4e487b71000000000000000000000000000000000000000000000000000000005f52602160045260245ffd5b5f60ff82169050919050565b610be381610bce565b82525050565b5f608082019050610bfc5f83018761073a565b610c096020830186610bda565b610c16604083018561073a565b610c23606083018461073a565b9594505050505056fea26469706673582212204b1cef5115a1ec9e7d3348d45f85b241a2b8fb23cb4ed62c638f70205314fc7764736f6c63430008210033","linkReferences":{}},"methodIdentifiers":{"AUTH_TYPEHASH()":"5110ee86","DOMAIN_SEPARATOR()":"3644e515","authorize(address,bytes32,bytes)":"59f89dda","nonces(address)":"7ecebe00","registry()":"7b103999"},"id":17}