{"abi":[{"type":"constructor","inputs":[{"name":"_admin","type":"address","internalType":"address"}],"stateMutability":"nonpayable"},{"type":"function","name":"admin","inputs":[],"outputs":[{"name":"","type":"address","internalType":"address"}],"stateMutability":"view"},{"type":"function","name":"getModule","inputs":[{"name":"id","type":"bytes32","internalType":"bytes32"}],"outputs":[{"name":"","type":"address","internalType":"address"}],"stateMutability":"view"},{"type":"function","name":"isParticipant","inputs":[{"name":"user","type":"address","internalType":"address"}],"outputs":[{"name":"","type":"bool","internalType":"bool"}],"stateMutability":"view"},{"type":"function","name":"registerModule","inputs":[{"name":"id","type":"bytes32","internalType":"bytes32"},{"name":"module","type":"address","internalType":"address"}],"outputs":[],"stateMutability":"nonpayable"},{"type":"function","name":"setParticipant","inputs":[{"name":"user","type":"address","internalType":"address"},{"name":"allowed","type":"bool","internalType":"bool"}],"outputs":[],"stateMutability":"nonpayable"},{"type":"event","name":"ModuleRegistered","inputs":[{"name":"id","type":"bytes32","indexed":true,"internalType":"bytes32"},{"name":"module","type":"address","indexed":false,"internalType":"address"}],"anonymous":false},{"type":"event","name":"ParticipantUpdated","inputs":[{"name":"participant","type":"address","indexed":true,"internalType":"address"},{"name":"allowed","type":"bool","indexed":false,"internalType":"bool"}],"anonymous":false},{"type":"error","name":"InvalidAddress","inputs":[]},{"type":"error","name":"ModuleAlreadySet","inputs":[]},{"type":"error","name":"NotAdmin","inputs":[]}],"bytecode":{"object":"0x608060405234801561000f575f5ffd5b5060405161080f38038061080f83398181016040528101906100319190610139565b5f73ffffffffffffffffffffffffffffffffffffffff168173ffffffffffffffffffffffffffffffffffffffff1603610096576040517fe6c4247b00000000000000000000000000000000000000000000000000000000815260040160405180910390fd5b805f5f6101000a81548173ffffffffffffffffffffffffffffffffffffffff021916908373ffffffffffffffffffffffffffffffffffffffff16021790555050610164565b5f5ffd5b5f73ffffffffffffffffffffffffffffffffffffffff82169050919050565b5f610108826100df565b9050919050565b610118816100fe565b8114610122575f5ffd5b50565b5f815190506101338161010f565b92915050565b5f6020828403121561014e5761014d6100db565b5b5f61015b84828501610125565b91505092915050565b61069e806101715f395ff3fe608060405234801561000f575f5ffd5b5060043610610055575f3560e01c806385acd641146100595780638b6bbc2614610089578063929066f5146100a5578063a78e922b146100d5578063f851a440146100f1575b5f5ffd5b610073600480360381019061006e91906104b7565b61010f565b6040516100809190610521565b60405180910390f35b6100a3600480360381019061009e9190610599565b610148565b005b6100bf60048036038101906100ba91906105d7565b6101f6565b6040516100cc9190610611565b60405180910390f35b6100ef60048036038101906100ea919061062a565b610248565b005b6100f96103d5565b6040516101069190610521565b60405180910390f35b5f60015f8381526020019081526020015f205f9054906101000a900473ffffffffffffffffffffffffffffffffffffffff169050919050565b6101506103f9565b8060025f8473ffffffffffffffffffffffffffffffffffffffff1673ffffffffffffffffffffffffffffffffffffffff1681526020019081526020015f205f6101000a81548160ff0219169083151502179055508173ffffffffffffffffffffffffffffffffffffffff167fb9df2cff1c96a80bc8f10474bb4fb56a4e72f32474fb240a92d859aef51b49c1826040516101ea9190610611565b60405180910390a25050565b5f60025f8373ffffffffffffffffffffffffffffffffffffffff1673ffffffffffffffffffffffffffffffffffffffff1681526020019081526020015f205f9054906101000a900460ff169050919050565b6102506103f9565b5f73ffffffffffffffffffffffffffffffffffffffff168173ffffffffffffffffffffffffffffffffffffffff16036102b5576040517fe6c4247b00000000000000000000000000000000000000000000000000000000815260040160405180910390fd5b5f73ffffffffffffffffffffffffffffffffffffffff1660015f8481526020019081526020015f205f9054906101000a900473ffffffffffffffffffffffffffffffffffffffff1673ffffffffffffffffffffffffffffffffffffffff161461034a576040517f30bfcac000000000000000000000000000000000000000000000000000000000815260040160405180910390fd5b8060015f8481526020019081526020015f205f6101000a81548173ffffffffffffffffffffffffffffffffffffffff021916908373ffffffffffffffffffffffffffffffffffffffff160217905550817fd63be02155b46636309fb0a4a79647c60971aecaad53cbc83aad90cd75fd9d54826040516103c99190610521565b60405180910390a25050565b5f5f9054906101000a900473ffffffffffffffffffffffffffffffffffffffff1681565b5f5f9054906101000a900473ffffffffffffffffffffffffffffffffffffffff1673ffffffffffffffffffffffffffffffffffffffff163373ffffffffffffffffffffffffffffffffffffffff161461047e576040517f7bfa4b9f00000000000000000000000000000000000000000000000000000000815260040160405180910390fd5b565b5f5ffd5b5f819050919050565b61049681610484565b81146104a0575f5ffd5b50565b5f813590506104b18161048d565b92915050565b5f602082840312156104cc576104cb610480565b5b5f6104d9848285016104a3565b91505092915050565b5f73ffffffffffffffffffffffffffffffffffffffff82169050919050565b5f61050b826104e2565b9050919050565b61051b81610501565b82525050565b5f6020820190506105345f830184610512565b92915050565b61054381610501565b811461054d575f5ffd5b50565b5f8135905061055e8161053a565b92915050565b5f8115159050919050565b61057881610564565b8114610582575f5ffd5b50565b5f813590506105938161056f565b92915050565b5f5f604083850312156105af576105ae610480565b5b5f6105bc85828601610550565b92505060206105cd85828601610585565b9150509250929050565b5f602082840312156105ec576105eb610480565b5b5f6105f984828501610550565b91505092915050565b61060b81610564565b82525050565b5f6020820190506106245f830184610602565b92915050565b5f5f604083850312156106405761063f610480565b5b5f61064d858286016104a3565b925050602061065e85828601610550565b915050925092905056fea2646970667358221220809d789051867e7d95a8dda2a60b73c6a410fd134a991aeb757e8dc6a41c21e364736f6c63430008210033","linkReferences":{}},"methodIdentifiers":{"admin()":"f851a440","getModule(bytes32)":"85acd641","isParticipant(address)":"929066f5","registerModule(bytes32,address)":"a78e922b","setParticipant(address,bool)":"8b6bbc26"},"id":0}