{"abi":[{"type":"constructor","inputs":[{"name":"_registry","type":"address","internalType":"address"}],"stateMutability":"nonpayable"},{"type":"receive","stateMutability":"payable"},{"type":"function","name":"BPS_DENOMINATOR","inputs":[],"outputs":[{"name":"","type":"uint256","internalType":"uint256"}],"stateMutability":"view"},{"type":"function","name":"MAX_WITHDRAW_BPS","inputs":[],"outputs":[{"name":"","type":"uint256","internalType":"uint256"}],"stateMutability":"view"},{"type":"function","name":"MIN_DELAY","inputs":[],"outputs":[{"name":"","type":"uint256","internalType":"uint256"}],"stateMutability":"view"},{"type":"function","name":"execute","inputs":[{"name":"id","type":"bytes32","internalType":"bytes32"}],"outputs":[],"stateMutability":"nonpayable"},{"type":"function","name":"queue","inputs":[{"name":"id","type":"bytes32","internalType":"bytes32"},{"name":"target","type":"address","internalType":"address"},{"name":"value","type":"uint256","internalType":"uint256"},{"name":"data","type":"bytes","internalType":"bytes"}],"outputs":[],"stateMutability":"nonpayable"},{"type":"function","name":"queuedTransactions","inputs":[{"name":"","type":"bytes32","internalType":"bytes32"}],"outputs":[{"name":"target","type":"address","internalType":"address"},{"name":"value","type":"uint256","internalType":"uint256"},{"name":"data","type":"bytes","internalType":"bytes"},{"name":"executeAfter","type":"uint256","internalType":"uint256"}],"stateMutability":"view"},{"type":"function","name":"registry","inputs":[],"outputs":[{"name":"","type":"address","internalType":"contract IAresRegistry"}],"stateMutability":"view"},{"type":"function","name":"veto","inputs":[{"name":"id","type":"bytes32","internalType":"bytes32"}],"outputs":[],"stateMutability":"nonpayable"},{"type":"function","name":"vetoed","inputs":[{"name":"","type":"bytes32","internalType":"bytes32"}],"outputs":[{"name":"","type":"bool","internalType":"bool"}],"stateMutability":"view"},{"type":"event","name":"Executed","inputs":[{"name":"id","type":"bytes32","indexed":true,"internalType":"bytes32"}],"anonymous":false},{"type":"event","name":"ProposalVetoed","inputs":[{"name":"id","type":"bytes32","indexed":true,"internalType":"bytes32"}],"anonymous":false},{"type":"event","name":"Queued","inputs":[{"name":"id","type":"bytes32","indexed":true,"internalType":"bytes32"},{"name":"executeAfter","type":"uint256","indexed":false,"internalType":"uint256"}],"anonymous":false},{"type":"error","name":"NotParticipant","inputs":[]},{"type":"error","name":"NotProposer","inputs":[]},{"type":"error","name":"NotQueued","inputs":[]},{"type":"error","name":"NotReady","inputs":[]},{"type":"error","name":"ReentrancyGuardReentrantCall","inputs":[]},{"type":"error","name":"WithdrawLimitExceeded","inputs":[]}],"bytecode":{"object":"0x608060405234801561000f575f5ffd5b5060405161159c38038061159c8339818101604052810190610031919061012a565b600161004f61004461009a60201b60201c565b6100c360201b60201c565b5f0181905550805f5f6101000a81548173ffffffffffffffffffffffffffffffffffffffff021916908373ffffffffffffffffffffffffffffffffffffffff16021790555050610155565b5f7f9b779b17422d0df92223018b32b4d1fa46e071723d6817e2486d003becc55f005f1b905090565b5f819050919050565b5f5ffd5b5f73ffffffffffffffffffffffffffffffffffffffff82169050919050565b5f6100f9826100d0565b9050919050565b610109816100ef565b8114610113575f5ffd5b50565b5f8151905061012481610100565b92915050565b5f6020828403121561013f5761013e6100cc565b5b5f61014c84828501610116565b91505092915050565b61143a806101625f395ff3fe608060405260043610610089575f3560e01c8063c5834ba611610058578063c5834ba61461013a578063e1a4521814610176578063e751f271146101a0578063f2b06537146101c8578063fb6f93f91461020757610090565b80634f586803146100945780637b103999146100bc5780637ead8000146100e65780639f81aed71461011057610090565b3661009057005b5f5ffd5b34801561009f575f5ffd5b506100ba60048036038101906100b59190610c99565b61022f565b005b3480156100c7575f5ffd5b506100d06103e2565b6040516100dd9190610d78565b60405180910390f35b3480156100f1575f5ffd5b506100fa610406565b6040516101079190610da0565b60405180910390f35b34801561011b575f5ffd5b5061012461040c565b6040516101319190610da0565b60405180910390f35b348015610145575f5ffd5b50610160600480360381019061015b9190610db9565b610413565b60405161016d9190610dfe565b60405180910390f35b348015610181575f5ffd5b5061018a610430565b6040516101979190610da0565b60405180910390f35b3480156101ab575f5ffd5b506101c660048036038101906101c19190610db9565b610436565b005b3480156101d3575f5ffd5b506101ee60048036038101906101e99190610db9565b610733565b6040516101fe9493929190610e96565b60405180910390f35b348015610212575f5ffd5b5061022d60048036038101906102289190610db9565b610804565b005b61023761092b565b6127106103e8476102489190610f0d565b6102529190610f7b565b83111561028b576040517f14f310c900000000000000000000000000000000000000000000000000000000815260040160405180910390fd5b60405180608001604052808573ffffffffffffffffffffffffffffffffffffffff16815260200184815260200183838080601f0160208091040260200160405190810160405280939291908181526020018383808284375f81840152601f19601f8201169050808301925050505050505081526020016202a300426103109190610fab565b81525060015f8781526020019081526020015f205f820151815f015f6101000a81548173ffffffffffffffffffffffffffffffffffffffff021916908373ffffffffffffffffffffffffffffffffffffffff1602179055506020820151816001015560408201518160020190816103879190611210565b5060608201518160030155905050847fc4c626f1f34927b0e12f8b00dc722390b9cf2bbf944aebc2e8226a4557f7f5a56202a300426103c69190610fab565b6040516103d39190610da0565b60405180910390a25050505050565b5f5f9054906101000a900473ffffffffffffffffffffffffffffffffffffffff1681565b6103e881565b6202a30081565b6002602052805f5260405f205f915054906101000a900460ff1681565b61271081565b61043e610a4e565b5f60015f8381526020019081526020015f206040518060800160405290815f82015f9054906101000a900473ffffffffffffffffffffffffffffffffffffffff1673ffffffffffffffffffffffffffffffffffffffff1673ffffffffffffffffffffffffffffffffffffffff168152602001600182015481526020016002820180546104c990611038565b80601f01602080910402602001604051908101604052809291908181526020018280546104f590611038565b80156105405780601f1061051757610100808354040283529160200191610540565b820191905f5260205f20905b81548152906001019060200180831161052357829003601f168201915b50505050508152602001600382015481525050905060025f8381526020019081526020015f205f9054906101000a900460ff16156105aa576040517f9488aaa600000000000000000000000000000000000000000000000000000000815260040160405180910390fd5b5f8160600151036105e7576040517fccbc0d7100000000000000000000000000000000000000000000000000000000815260040160405180910390fd5b8060600151421015610625576040517f9488aaa600000000000000000000000000000000000000000000000000000000815260040160405180910390fd5b60015f8381526020019081526020015f205f5f82015f6101000a81549073ffffffffffffffffffffffffffffffffffffffff0219169055600182015f9055600282015f6106729190610b19565b600382015f905550505f815f015173ffffffffffffffffffffffffffffffffffffffff16826020015183604001516040516106ad9190611319565b5f6040518083038185875af1925050503d805f81146106e7576040519150601f19603f3d011682016040523d82523d5f602084013e6106ec565b606091505b50509050806106f9575f5ffd5b827fa74c8847d513feba22a0f0cb38d53081abf97562cdb293926ba243689e7c41ca60405160405180910390a25050610730610a70565b50565b6001602052805f5260405f205f91509050805f015f9054906101000a900473ffffffffffffffffffffffffffffffffffffffff169080600101549080600201805461077d90611038565b80601f01602080910402602001604051908101604052809291908181526020018280546107a990611038565b80156107f45780601f106107cb576101008083540402835291602001916107f4565b820191905f5260205f20905b8154815290600101906020018083116107d757829003601f168201915b5050505050908060030154905084565b5f5f9054906101000a900473ffffffffffffffffffffffffffffffffffffffff1673ffffffffffffffffffffffffffffffffffffffff1663929066f5336040518263ffffffff1660e01b815260040161085d919061132f565b602060405180830381865afa158015610878573d5f5f3e3d5ffd5b505050506040513d601f19601f8201168201806040525081019061089c9190611372565b6108d2576040517fe438f8ce00000000000000000000000000000000000000000000000000000000815260040160405180910390fd5b600160025f8381526020019081526020015f205f6101000a81548160ff021916908315150217905550807f0c8bf601915d1f39ef591226bc69b3becc23fcb3616673c419062aa44beb42da60405160405180910390a250565b5f5f5f9054906101000a900473ffffffffffffffffffffffffffffffffffffffff1673ffffffffffffffffffffffffffffffffffffffff166385acd6417f3c8fa38fcedb59a83a15d7e05a62d7278548f6c72bf3ab4e68e419960d6de9296040518263ffffffff1660e01b81526004016109a591906113ac565b602060405180830381865afa1580156109c0573d5f5f3e3d5ffd5b505050506040513d601f19601f820116820180604052508101906109e491906113d9565b90508073ffffffffffffffffffffffffffffffffffffffff163373ffffffffffffffffffffffffffffffffffffffff1614610a4b576040517f7d1b73b900000000000000000000000000000000000000000000000000000000815260040160405180910390fd5b50565b610a56610a8a565b6002610a68610a63610acb565b610af4565b5f0181905550565b6001610a82610a7d610acb565b610af4565b5f0181905550565b610a92610afd565b15610ac9576040517f3ee5aeb500000000000000000000000000000000000000000000000000000000815260040160405180910390fd5b565b5f7f9b779b17422d0df92223018b32b4d1fa46e071723d6817e2486d003becc55f005f1b905090565b5f819050919050565b5f6002610b10610b0b610acb565b610af4565b5f015414905090565b508054610b2590611038565b5f825580601f10610b365750610b50565b601f0160209004905f5260205f2090610b4f9190610b53565b5b50565b5f5b80821115610b6b578281015f9055600101610b55565b505090565b5f5ffd5b5f5ffd5b5f819050919050565b610b8a81610b78565b8114610b94575f5ffd5b50565b5f81359050610ba581610b81565b92915050565b5f73ffffffffffffffffffffffffffffffffffffffff82169050919050565b5f610bd482610bab565b9050919050565b610be481610bca565b8114610bee575f5ffd5b50565b5f81359050610bff81610bdb565b92915050565b5f819050919050565b610c1781610c05565b8114610c21575f5ffd5b50565b5f81359050610c3281610c0e565b92915050565b5f5ffd5b5f5ffd5b5f5ffd5b5f5f83601f840112610c5957610c58610c38565b5b8235905067ffffffffffffffff811115610c7657610c75610c3c565b5b602083019150836001820283011115610c9257610c91610c40565b5b9250929050565b5f5f5f5f5f60808688031215610cb257610cb1610b70565b5b5f610cbf88828901610b97565b9550506020610cd088828901610bf1565b9450506040610ce188828901610c24565b935050606086013567ffffffffffffffff811115610d0257610d01610b74565b5b610d0e88828901610c44565b92509250509295509295909350565b5f819050919050565b5f610d40610d3b610d3684610bab565b610d1d565b610bab565b9050919050565b5f610d5182610d26565b9050919050565b5f610d6282610d47565b9050919050565b610d7281610d58565b82525050565b5f602082019050610d8b5f830184610d69565b92915050565b610d9a81610c05565b82525050565b5f602082019050610db35f830184610d91565b92915050565b5f60208284031215610dce57610dcd610b70565b5b5f610ddb84828501610b97565b91505092915050565b5f8115159050919050565b610df881610de4565b82525050565b5f602082019050610e115f830184610def565b92915050565b610e2081610bca565b82525050565b5f81519050919050565b5f82825260208201905092915050565b8281835e5f83830152505050565b5f601f19601f8301169050919050565b5f610e6882610e26565b610e728185610e30565b9350610e82818560208601610e40565b610e8b81610e4e565b840191505092915050565b5f608082019050610ea95f830187610e17565b610eb66020830186610d91565b8181036040830152610ec88185610e5e565b9050610ed76060830184610d91565b95945050505050565b7f4e487b71000000000000000000000000000000000000000000000000000000005f52601160045260245ffd5b5f610f1782610c05565b9150610f2283610c05565b9250828202610f3081610c05565b91508282048414831517610f4757610f46610ee0565b5b5092915050565b7f4e487b71000000000000000000000000000000000000000000000000000000005f52601260045260245ffd5b5f610f8582610c05565b9150610f9083610c05565b925082610fa057610f9f610f4e565b5b828204905092915050565b5f610fb582610c05565b9150610fc083610c05565b9250828201905080821115610fd857610fd7610ee0565b5b92915050565b7f4e487b71000000000000000000000000000000000000000000000000000000005f52604160045260245ffd5b7f4e487b71000000000000000000000000000000000000000000000000000000005f52602260045260245ffd5b5f600282049050600182168061104f57607f821691505b6020821081036110625761106161100b565b5b50919050565b5f819050815f5260205f209050919050565b5f6020601f8301049050919050565b5f82821b905092915050565b5f600883026110c47fffffffffffffffffffffffffffffffffffffffffffffffffffffffffffffffff82611089565b6110ce8683611089565b95508019841693508086168417925050509392505050565b5f6111006110fb6110f684610c05565b610d1d565b610c05565b9050919050565b5f819050919050565b611119836110e6565b61112d61112582611107565b848454611095565b825550505050565b5f5f905090565b611144611135565b61114f818484611110565b505050565b5f5b828110156111755761116a5f82840161113c565b600181019050611156565b505050565b601f8211156111c857828211156111c75761119481611068565b61119d8361107a565b6111a68561107a565b60208610156111b3575f90505b8083016111c282840382611154565b505050505b5b505050565b5f82821c905092915050565b5f6111e85f19846008026111cd565b1980831691505092915050565b5f61120083836111d9565b9150826002028217905092915050565b61121982610e26565b67ffffffffffffffff81111561123257611231610fde565b5b61123c8254611038565b61124782828561117a565b5f60209050601f831160018114611278575f8415611266578287015190505b61127085826111f5565b8655506112d7565b601f19841661128686611068565b5f5b828110156112ad57848901518255600182019150602085019450602081019050611288565b868310156112ca57848901516112c6601f8916826111d9565b8355505b6001600288020188555050505b505050505050565b5f81905092915050565b5f6112f382610e26565b6112fd81856112df565b935061130d818560208601610e40565b80840191505092915050565b5f61132482846112e9565b915081905092915050565b5f6020820190506113425f830184610e17565b92915050565b61135181610de4565b811461135b575f5ffd5b50565b5f8151905061136c81611348565b92915050565b5f6020828403121561138757611386610b70565b5b5f6113948482850161135e565b91505092915050565b6113a681610b78565b82525050565b5f6020820190506113bf5f83018461139d565b92915050565b5f815190506113d381610bdb565b92915050565b5f602082840312156113ee576113ed610b70565b5b5f6113fb848285016113c5565b9150509291505056fea26469706673582212200b3239ad6debf2be22ca0928accda9f4593c04c45d371a22f0c98cc45a7fad5864736f6c63430008210033","linkReferences":{}},"methodIdentifiers":{"BPS_DENOMINATOR()":"e1a45218","MAX_WITHDRAW_BPS()":"7ead8000","MIN_DELAY()":"9f81aed7","execute(bytes32)":"e751f271","queue(bytes32,address,uint256,bytes)":"4f586803","queuedTransactions(bytes32)":"f2b06537","registry()":"7b103999","veto(bytes32)":"fb6f93f9","vetoed(bytes32)":"c5834ba6"},"id":37}