{"abi":[{"type":"constructor","inputs":[{"name":"_registry","type":"address","internalType":"address"}],"stateMutability":"nonpayable"},{"type":"receive","stateMutability":"payable"},{"type":"function","name":"MIN_DELAY","inputs":[],"outputs":[{"name":"","type":"uint256","internalType":"uint256"}],"stateMutability":"view"},{"type":"function","name":"execute","inputs":[{"name":"id","type":"bytes32","internalType":"bytes32"}],"outputs":[],"stateMutability":"nonpayable"},{"type":"function","name":"queue","inputs":[{"name":"id","type":"bytes32","internalType":"bytes32"},{"name":"target","type":"address","internalType":"address"},{"name":"value","type":"uint256","internalType":"uint256"},{"name":"data","type":"bytes","internalType":"bytes"}],"outputs":[],"stateMutability":"nonpayable"},{"type":"function","name":"queuedTransactions","inputs":[{"name":"","type":"bytes32","internalType":"bytes32"}],"outputs":[{"name":"target","type":"address","internalType":"address"},{"name":"value","type":"uint256","internalType":"uint256"},{"name":"data","type":"bytes","internalType":"bytes"},{"name":"executeAfter","type":"uint256","internalType":"uint256"}],"stateMutability":"view"},{"type":"function","name":"registry","inputs":[],"outputs":[{"name":"","type":"address","internalType":"contract IAresRegistry"}],"stateMutability":"view"},{"type":"event","name":"Executed","inputs":[{"name":"id","type":"bytes32","indexed":true,"internalType":"bytes32"}],"anonymous":false},{"type":"event","name":"Queued","inputs":[{"name":"id","type":"bytes32","indexed":true,"internalType":"bytes32"},{"name":"executeAfter","type":"uint256","indexed":false,"internalType":"uint256"}],"anonymous":false},{"type":"error","name":"NotProposer","inputs":[]},{"type":"error","name":"NotQueued","inputs":[]},{"type":"error","name":"NotReady","inputs":[]},{"type":"error","name":"ReentrancyGuardReentrantCall","inputs":[]}],"bytecode":{"object":"0x608060405234801561000f575f5ffd5b506040516111663803806111668339818101604052810190610031919061012a565b600161004f61004461009a60201b60201c565b6100c360201b60201c565b5f0181905550805f5f6101000a81548173ffffffffffffffffffffffffffffffffffffffff021916908373ffffffffffffffffffffffffffffffffffffffff16021790555050610155565b5f7f9b779b17422d0df92223018b32b4d1fa46e071723d6817e2486d003becc55f005f1b905090565b5f819050919050565b5f5ffd5b5f73ffffffffffffffffffffffffffffffffffffffff82169050919050565b5f6100f9826100d0565b9050919050565b610109816100ef565b8114610113575f5ffd5b50565b5f8151905061012481610100565b92915050565b5f6020828403121561013f5761013e6100cc565b5b5f61014c84828501610116565b91505092915050565b611004806101625f395ff3fe60806040526004361061004d575f3560e01c80634f586803146100585780637b103999146100805780639f81aed7146100aa578063e751f271146100d4578063f2b06537146100fc57610054565b3661005457005b5f5ffd5b348015610063575f5ffd5b5061007e600480360381019061007991906109a2565b61013b565b005b34801561008b575f5ffd5b506100946103b3565b6040516100a19190610a81565b60405180910390f35b3480156100b5575f5ffd5b506100be6103d7565b6040516100cb9190610aa9565b60405180910390f35b3480156100df575f5ffd5b506100fa60048036038101906100f59190610ac2565b6103de565b005b348015610107575f5ffd5b50610122600480360381019061011d9190610ac2565b610686565b6040516101329493929190610b6c565b60405180910390f35b5f5f5f9054906101000a900473ffffffffffffffffffffffffffffffffffffffff1673ffffffffffffffffffffffffffffffffffffffff166385acd6417f3c8fa38fcedb59a83a15d7e05a62d7278548f6c72bf3ab4e68e419960d6de9296040518263ffffffff1660e01b81526004016101b59190610bc5565b602060405180830381865afa1580156101d0573d5f5f3e3d5ffd5b505050506040513d601f19601f820116820180604052508101906101f49190610bf2565b90508073ffffffffffffffffffffffffffffffffffffffff163373ffffffffffffffffffffffffffffffffffffffff161461025b576040517f7d1b73b900000000000000000000000000000000000000000000000000000000815260040160405180910390fd5b60405180608001604052808673ffffffffffffffffffffffffffffffffffffffff16815260200185815260200184848080601f0160208091040260200160405190810160405280939291908181526020018383808284375f81840152601f19601f8201169050808301925050505050505081526020016202a300426102e09190610c4a565b81525060015f8881526020019081526020015f205f820151815f015f6101000a81548173ffffffffffffffffffffffffffffffffffffffff021916908373ffffffffffffffffffffffffffffffffffffffff1602179055506020820151816001015560408201518160020190816103579190610eaf565b5060608201518160030155905050857fc4c626f1f34927b0e12f8b00dc722390b9cf2bbf944aebc2e8226a4557f7f5a56202a300426103969190610c4a565b6040516103a39190610aa9565b60405180910390a2505050505050565b5f5f9054906101000a900473ffffffffffffffffffffffffffffffffffffffff1681565b6202a30081565b6103e6610757565b5f60015f8381526020019081526020015f206040518060800160405290815f82015f9054906101000a900473ffffffffffffffffffffffffffffffffffffffff1673ffffffffffffffffffffffffffffffffffffffff1673ffffffffffffffffffffffffffffffffffffffff1681526020016001820154815260200160028201805461047190610cd7565b80601f016020809104026020016040519081016040528092919081815260200182805461049d90610cd7565b80156104e85780601f106104bf576101008083540402835291602001916104e8565b820191905f5260205f20905b8154815290600101906020018083116104cb57829003601f168201915b5050505050815260200160038201548152505090505f81606001510361053a576040517fccbc0d7100000000000000000000000000000000000000000000000000000000815260040160405180910390fd5b8060600151421015610578576040517f9488aaa600000000000000000000000000000000000000000000000000000000815260040160405180910390fd5b60015f8381526020019081526020015f205f5f82015f6101000a81549073ffffffffffffffffffffffffffffffffffffffff0219169055600182015f9055600282015f6105c59190610822565b600382015f905550505f815f015173ffffffffffffffffffffffffffffffffffffffff16826020015183604001516040516106009190610fb8565b5f6040518083038185875af1925050503d805f811461063a576040519150601f19603f3d011682016040523d82523d5f602084013e61063f565b606091505b505090508061064c575f5ffd5b827fa74c8847d513feba22a0f0cb38d53081abf97562cdb293926ba243689e7c41ca60405160405180910390a25050610683610779565b50565b6001602052805f5260405f205f91509050805f015f9054906101000a900473ffffffffffffffffffffffffffffffffffffffff16908060010154908060020180546106d090610cd7565b80601f01602080910402602001604051908101604052809291908181526020018280546106fc90610cd7565b80156107475780601f1061071e57610100808354040283529160200191610747565b820191905f5260205f20905b81548152906001019060200180831161072a57829003601f168201915b5050505050908060030154905084565b61075f610793565b600261077161076c6107d4565b6107fd565b5f0181905550565b600161078b6107866107d4565b6107fd565b5f0181905550565b61079b610806565b156107d2576040517f3ee5aeb500000000000000000000000000000000000000000000000000000000815260040160405180910390fd5b565b5f7f9b779b17422d0df92223018b32b4d1fa46e071723d6817e2486d003becc55f005f1b905090565b5f819050919050565b5f60026108196108146107d4565b6107fd565b5f015414905090565b50805461082e90610cd7565b5f825580601f1061083f5750610859565b601f0160209004905f5260205f2090610858919061085c565b5b50565b5f5b80821115610874578281015f905560010161085e565b505090565b5f5ffd5b5f5ffd5b5f819050919050565b61089381610881565b811461089d575f5ffd5b50565b5f813590506108ae8161088a565b92915050565b5f73ffffffffffffffffffffffffffffffffffffffff82169050919050565b5f6108dd826108b4565b9050919050565b6108ed816108d3565b81146108f7575f5ffd5b50565b5f81359050610908816108e4565b92915050565b5f819050919050565b6109208161090e565b811461092a575f5ffd5b50565b5f8135905061093b81610917565b92915050565b5f5ffd5b5f5ffd5b5f5ffd5b5f5f83601f84011261096257610961610941565b5b8235905067ffffffffffffffff81111561097f5761097e610945565b5b60208301915083600182028301111561099b5761099a610949565b5b9250929050565b5f5f5f5f5f608086880312156109bb576109ba610879565b5b5f6109c8888289016108a0565b95505060206109d9888289016108fa565b94505060406109ea8882890161092d565b935050606086013567ffffffffffffffff811115610a0b57610a0a61087d565b5b610a178882890161094d565b92509250509295509295909350565b5f819050919050565b5f610a49610a44610a3f846108b4565b610a26565b6108b4565b9050919050565b5f610a5a82610a2f565b9050919050565b5f610a6b82610a50565b9050919050565b610a7b81610a61565b82525050565b5f602082019050610a945f830184610a72565b92915050565b610aa38161090e565b82525050565b5f602082019050610abc5f830184610a9a565b92915050565b5f60208284031215610ad757610ad6610879565b5b5f610ae4848285016108a0565b91505092915050565b610af6816108d3565b82525050565b5f81519050919050565b5f82825260208201905092915050565b8281835e5f83830152505050565b5f601f19601f8301169050919050565b5f610b3e82610afc565b610b488185610b06565b9350610b58818560208601610b16565b610b6181610b24565b840191505092915050565b5f608082019050610b7f5f830187610aed565b610b8c6020830186610a9a565b8181036040830152610b9e8185610b34565b9050610bad6060830184610a9a565b95945050505050565b610bbf81610881565b82525050565b5f602082019050610bd85f830184610bb6565b92915050565b5f81519050610bec816108e4565b92915050565b5f60208284031215610c0757610c06610879565b5b5f610c1484828501610bde565b91505092915050565b7f4e487b71000000000000000000000000000000000000000000000000000000005f52601160045260245ffd5b5f610c548261090e565b9150610c5f8361090e565b9250828201905080821115610c7757610c76610c1d565b5b92915050565b7f4e487b71000000000000000000000000000000000000000000000000000000005f52604160045260245ffd5b7f4e487b71000000000000000000000000000000000000000000000000000000005f52602260045260245ffd5b5f6002820490506001821680610cee57607f821691505b602082108103610d0157610d00610caa565b5b50919050565b5f819050815f5260205f209050919050565b5f6020601f8301049050919050565b5f82821b905092915050565b5f60088302610d637fffffffffffffffffffffffffffffffffffffffffffffffffffffffffffffffff82610d28565b610d6d8683610d28565b95508019841693508086168417925050509392505050565b5f610d9f610d9a610d958461090e565b610a26565b61090e565b9050919050565b5f819050919050565b610db883610d85565b610dcc610dc482610da6565b848454610d34565b825550505050565b5f5f905090565b610de3610dd4565b610dee818484610daf565b505050565b5f5b82811015610e1457610e095f828401610ddb565b600181019050610df5565b505050565b601f821115610e675782821115610e6657610e3381610d07565b610e3c83610d19565b610e4585610d19565b6020861015610e52575f90505b808301610e6182840382610df3565b505050505b5b505050565b5f82821c905092915050565b5f610e875f1984600802610e6c565b1980831691505092915050565b5f610e9f8383610e78565b9150826002028217905092915050565b610eb882610afc565b67ffffffffffffffff811115610ed157610ed0610c7d565b5b610edb8254610cd7565b610ee6828285610e19565b5f60209050601f831160018114610f17575f8415610f05578287015190505b610f0f8582610e94565b865550610f76565b601f198416610f2586610d07565b5f5b82811015610f4c57848901518255600182019150602085019450602081019050610f27565b86831015610f695784890151610f65601f891682610e78565b8355505b6001600288020188555050505b505050505050565b5f81905092915050565b5f610f9282610afc565b610f9c8185610f7e565b9350610fac818560208601610b16565b80840191505092915050565b5f610fc38284610f88565b91508190509291505056fea2646970667358221220143b2e125ef578b1960b2a35ce5bc5361ae7642d45399d4258859412391c601464736f6c63430008210033","linkReferences":{}},"methodIdentifiers":{"MIN_DELAY()":"9f81aed7","execute(bytes32)":"e751f271","queue(bytes32,address,uint256,bytes)":"4f586803","queuedTransactions(bytes32)":"f2b06537","registry()":"7b103999"},"id":18}