{"abi":[{"type":"constructor","inputs":[{"name":"_registry","type":"address","internalType":"address"}],"stateMutability":"nonpayable"},{"type":"function","name":"COMMIT_DELAY","inputs":[],"outputs":[{"name":"","type":"uint256","internalType":"uint256"}],"stateMutability":"view"},{"type":"function","name":"cancelProposal","inputs":[{"name":"id","type":"bytes32","internalType":"bytes32"}],"outputs":[],"stateMutability":"nonpayable"},{"type":"function","name":"commitProposal","inputs":[{"name":"target","type":"address","internalType":"address"},{"name":"value","type":"uint256","internalType":"uint256"},{"name":"data","type":"bytes","internalType":"bytes"}],"outputs":[{"name":"id","type":"bytes32","internalType":"bytes32"}],"stateMutability":"nonpayable"},{"type":"function","name":"proposals","inputs":[{"name":"","type":"bytes32","internalType":"bytes32"}],"outputs":[{"name":"target","type":"address","internalType":"address"},{"name":"value","type":"uint256","internalType":"uint256"},{"name":"data","type":"bytes","internalType":"bytes"},{"name":"commitTimestamp","type":"uint256","internalType":"uint256"},{"name":"snapshotBlock","type":"uint256","internalType":"uint256"},{"name":"state","type":"uint8","internalType":"enum AresTypes.ProposalState"}],"stateMutability":"view"},{"type":"function","name":"queueProposal","inputs":[{"name":"id","type":"bytes32","internalType":"bytes32"}],"outputs":[],"stateMutability":"nonpayable"},{"type":"function","name":"registry","inputs":[],"outputs":[{"name":"","type":"address","internalType":"contract IAresRegistry"}],"stateMutability":"view"},{"type":"function","name":"state","inputs":[{"name":"id","type":"bytes32","internalType":"bytes32"}],"outputs":[{"name":"","type":"uint8","internalType":"uint8"}],"stateMutability":"view"},{"type":"event","name":"ProposalCancelled","inputs":[{"name":"proposalId","type":"bytes32","indexed":true,"internalType":"bytes32"}],"anonymous":false},{"type":"event","name":"ProposalCommitted","inputs":[{"name":"proposalId","type":"bytes32","indexed":true,"internalType":"bytes32"},{"name":"proposer","type":"address","indexed":false,"internalType":"address"}],"anonymous":false},{"type":"event","name":"ProposalQueued","inputs":[{"name":"proposalId","type":"bytes32","indexed":true,"internalType":"bytes32"}],"anonymous":false},{"type":"error","name":"CommitDelayNotElapsed","inputs":[]},{"type":"error","name":"InvalidState","inputs":[]},{"type":"error","name":"NotParticipant","inputs":[]},{"type":"error","name":"ProposalExists","inputs":[]}],"bytecode":{"object":"0x608060405234801561000f575f5ffd5b5060405161142c38038061142c833981810160405281019061003191906100d4565b805f5f6101000a81548173ffffffffffffffffffffffffffffffffffffffff021916908373ffffffffffffffffffffffffffffffffffffffff160217905550506100ff565b5f5ffd5b5f73ffffffffffffffffffffffffffffffffffffffff82169050919050565b5f6100a38261007a565b9050919050565b6100b381610099565b81146100bd575f5ffd5b50565b5f815190506100ce816100aa565b92915050565b5f602082840312156100e9576100e8610076565b5b5f6100f6848285016100c0565b91505092915050565b6113208061010c5f395ff3fe608060405234801561000f575f5ffd5b506004361061007b575f3560e01c806350857fb21161005957806350857fb21461010057806361d585da1461011e57806374428d9b1461014e5780637b1039991461016a5761007b565b806332ed5b121461007f57806337376ca8146100b457806339d80dba146100d0575b5f5ffd5b61009960048036038101906100949190610981565b610188565b6040516100ab96959493929190610ae6565b60405180910390f35b6100ce60048036038101906100c99190610981565b610271565b005b6100ea60048036038101906100e59190610c01565b610358565b6040516100f79190610c81565b60405180910390f35b61010861055c565b6040516101159190610c9a565b60405180910390f35b61013860048036038101906101339190610981565b610563565b6040516101459190610cce565b60405180910390f35b61016860048036038101906101639190610981565b61059e565b005b61017261081a565b60405161017f9190610d42565b60405180910390f35b6001602052805f5260405f205f91509050805f015f9054906101000a900473ffffffffffffffffffffffffffffffffffffffff16908060010154908060020180546101d290610d88565b80601f01602080910402602001604051908101604052809291908181526020018280546101fe90610d88565b80156102495780601f1061022057610100808354040283529160200191610249565b820191905f5260205f20905b81548152906001019060200180831161022c57829003601f168201915b505050505090806003015490806004015490806005015f9054906101000a900460ff16905086565b61027961083e565b5f60015f8381526020019081526020015f209050600360048111156102a1576102a0610a73565b5b816005015f9054906101000a900460ff1660048111156102c4576102c3610a73565b5b036102fb576040517fbaf3f0f700000000000000000000000000000000000000000000000000000000815260040160405180910390fd5b6004816005015f6101000a81548160ff0219169083600481111561032257610321610a73565b5b0217905550817f7bf38ee614622e33a85c9c8b9f0dca88e471d781640cddbb75c90e2bdeb6e12560405160405180910390a25050565b5f61036161083e565b61036d8585858561090e565b90505f60015f8381526020019081526020015f2060030154146103bc576040517f5c36267800000000000000000000000000000000000000000000000000000000815260040160405180910390fd5b6040518060c001604052808673ffffffffffffffffffffffffffffffffffffffff16815260200185815260200184848080601f0160208091040260200160405190810160405280939291908181526020018383808284375f81840152601f19601f8201169050808301925050505050505081526020014281526020016001436104459190610de5565b81526020016001600481111561045e5761045d610a73565b5b81525060015f8381526020019081526020015f205f820151815f015f6101000a81548173ffffffffffffffffffffffffffffffffffffffff021916908373ffffffffffffffffffffffffffffffffffffffff1602179055506020820151816001015560408201518160020190816104d59190610fed565b50606082015181600301556080820151816004015560a0820151816005015f6101000a81548160ff0219169083600481111561051457610513610a73565b5b0217905550905050807fc7d3a470d17ad4a47c6db8e281f2ef8e6fee5914ce98680a710bf62b420989043360405161054c91906110bc565b60405180910390a2949350505050565b6201518081565b5f60015f8381526020019081526020015f206005015f9054906101000a900460ff16600481111561059757610596610a73565b5b9050919050565b5f60015f8381526020019081526020015f209050600160048111156105c6576105c5610a73565b5b816005015f9054906101000a900460ff1660048111156105e9576105e8610a73565b5b14610620576040517fbaf3f0f700000000000000000000000000000000000000000000000000000000815260040160405180910390fd5b62015180816003015461063391906110d5565b42101561066c576040517f94757e0700000000000000000000000000000000000000000000000000000000815260040160405180910390fd5b5f5f5f9054906101000a900473ffffffffffffffffffffffffffffffffffffffff1673ffffffffffffffffffffffffffffffffffffffff166385acd6417f30511fbdae01ddcbc4ea0ed7f891afd910da919c15474a3753d392a2b9da3a0a6040518263ffffffff1660e01b81526004016106e69190610c81565b602060405180830381865afa158015610701573d5f5f3e3d5ffd5b505050506040513d601f19601f82011682018060405250810190610725919061111c565b90508073ffffffffffffffffffffffffffffffffffffffff16634f58680384845f015f9054906101000a900473ffffffffffffffffffffffffffffffffffffffff168560010154866002016040518563ffffffff1660e01b815260040161078f94939291906111c8565b5f604051808303815f87803b1580156107a6575f5ffd5b505af11580156107b8573d5f5f3e3d5ffd5b505050506002826005015f6101000a81548160ff021916908360048111156107e3576107e2610a73565b5b0217905550827f4e8c9d52084f3373dec7c4e5c6bd10b8b97fe0a107841ed1de3fbc8f0cc9e98460405160405180910390a2505050565b5f5f9054906101000a900473ffffffffffffffffffffffffffffffffffffffff1681565b5f5f9054906101000a900473ffffffffffffffffffffffffffffffffffffffff1673ffffffffffffffffffffffffffffffffffffffff1663929066f5336040518263ffffffff1660e01b815260040161089791906110bc565b602060405180830381865afa1580156108b2573d5f5f3e3d5ffd5b505050506040513d601f19601f820116820180604052508101906108d69190611247565b61090c576040517fe438f8ce00000000000000000000000000000000000000000000000000000000815260040160405180910390fd5b565b5f8484848460405160200161092694939291906112ac565b604051602081830303815290604052805190602001209050949350505050565b5f5ffd5b5f5ffd5b5f819050919050565b6109608161094e565b811461096a575f5ffd5b50565b5f8135905061097b81610957565b92915050565b5f6020828403121561099657610995610946565b5b5f6109a38482850161096d565b91505092915050565b5f73ffffffffffffffffffffffffffffffffffffffff82169050919050565b5f6109d5826109ac565b9050919050565b6109e5816109cb565b82525050565b5f819050919050565b6109fd816109eb565b82525050565b5f81519050919050565b5f82825260208201905092915050565b8281835e5f83830152505050565b5f601f19601f8301169050919050565b5f610a4582610a03565b610a4f8185610a0d565b9350610a5f818560208601610a1d565b610a6881610a2b565b840191505092915050565b7f4e487b71000000000000000000000000000000000000000000000000000000005f52602160045260245ffd5b60058110610ab157610ab0610a73565b5b50565b5f819050610ac182610aa0565b919050565b5f610ad082610ab4565b9050919050565b610ae081610ac6565b82525050565b5f60c082019050610af95f8301896109dc565b610b0660208301886109f4565b8181036040830152610b188187610a3b565b9050610b2760608301866109f4565b610b3460808301856109f4565b610b4160a0830184610ad7565b979650505050505050565b610b55816109cb565b8114610b5f575f5ffd5b50565b5f81359050610b7081610b4c565b92915050565b610b7f816109eb565b8114610b89575f5ffd5b50565b5f81359050610b9a81610b76565b92915050565b5f5ffd5b5f5ffd5b5f5ffd5b5f5f83601f840112610bc157610bc0610ba0565b5b8235905067ffffffffffffffff811115610bde57610bdd610ba4565b5b602083019150836001820283011115610bfa57610bf9610ba8565b5b9250929050565b5f5f5f5f60608587031215610c1957610c18610946565b5b5f610c2687828801610b62565b9450506020610c3787828801610b8c565b935050604085013567ffffffffffffffff811115610c5857610c5761094a565b5b610c6487828801610bac565b925092505092959194509250565b610c7b8161094e565b82525050565b5f602082019050610c945f830184610c72565b92915050565b5f602082019050610cad5f8301846109f4565b92915050565b5f60ff82169050919050565b610cc881610cb3565b82525050565b5f602082019050610ce15f830184610cbf565b92915050565b5f819050919050565b5f610d0a610d05610d00846109ac565b610ce7565b6109ac565b9050919050565b5f610d1b82610cf0565b9050919050565b5f610d2c82610d11565b9050919050565b610d3c81610d22565b82525050565b5f602082019050610d555f830184610d33565b92915050565b7f4e487b71000000000000000000000000000000000000000000000000000000005f52602260045260245ffd5b5f6002820490506001821680610d9f57607f821691505b602082108103610db257610db1610d5b565b5b50919050565b7f4e487b71000000000000000000000000000000000000000000000000000000005f52601160045260245ffd5b5f610def826109eb565b9150610dfa836109eb565b9250828203905081811115610e1257610e11610db8565b5b92915050565b7f4e487b71000000000000000000000000000000000000000000000000000000005f52604160045260245ffd5b5f819050815f5260205f209050919050565b5f6020601f8301049050919050565b5f82821b905092915050565b5f60088302610ea17fffffffffffffffffffffffffffffffffffffffffffffffffffffffffffffffff82610e66565b610eab8683610e66565b95508019841693508086168417925050509392505050565b5f610edd610ed8610ed3846109eb565b610ce7565b6109eb565b9050919050565b5f819050919050565b610ef683610ec3565b610f0a610f0282610ee4565b848454610e72565b825550505050565b5f5f905090565b610f21610f12565b610f2c818484610eed565b505050565b5f5b82811015610f5257610f475f828401610f19565b600181019050610f33565b505050565b601f821115610fa55782821115610fa457610f7181610e45565b610f7a83610e57565b610f8385610e57565b6020861015610f90575f90505b808301610f9f82840382610f31565b505050505b5b505050565b5f82821c905092915050565b5f610fc55f1984600802610faa565b1980831691505092915050565b5f610fdd8383610fb6565b9150826002028217905092915050565b610ff682610a03565b67ffffffffffffffff81111561100f5761100e610e18565b5b6110198254610d88565b611024828285610f57565b5f60209050601f831160018114611055575f8415611043578287015190505b61104d8582610fd2565b8655506110b4565b601f19841661106386610e45565b5f5b8281101561108a57848901518255600182019150602085019450602081019050611065565b868310156110a757848901516110a3601f891682610fb6565b8355505b6001600288020188555050505b505050505050565b5f6020820190506110cf5f8301846109dc565b92915050565b5f6110df826109eb565b91506110ea836109eb565b925082820190508082111561110257611101610db8565b5b92915050565b5f8151905061111681610b4c565b92915050565b5f6020828403121561113157611130610946565b5b5f61113e84828501611108565b91505092915050565b5f815461115381610d88565b61115d8186610a0d565b9450600182165f8114611177576001811461118d576111bf565b60ff1983168652811515602002860193506111bf565b61119685610e45565b5f5b838110156111b757815481890152600182019150602081019050611198565b808801955050505b50505092915050565b5f6080820190506111db5f830187610c72565b6111e860208301866109dc565b6111f560408301856109f4565b81810360608301526112078184611147565b905095945050505050565b5f8115159050919050565b61122681611212565b8114611230575f5ffd5b50565b5f815190506112418161121d565b92915050565b5f6020828403121561125c5761125b610946565b5b5f61126984828501611233565b91505092915050565b828183375f83830152505050565b5f61128b8385610a0d565b9350611298838584611272565b6112a183610a2b565b840190509392505050565b5f6060820190506112bf5f8301876109dc565b6112cc60208301866109f4565b81810360408301526112df818486611280565b90509594505050505056fea26469706673582212202eb5ba54bd8b9085156fbf704a2704a33b874272b1cf79d2557eb896a2d988b664736f6c63430008210033","linkReferences":{}},"methodIdentifiers":{"COMMIT_DELAY()":"50857fb2","cancelProposal(bytes32)":"37376ca8","commitProposal(address,uint256,bytes)":"39d80dba","proposals(bytes32)":"32ed5b12","queueProposal(bytes32)":"74428d9b","registry()":"7b103999","state(bytes32)":"61d585da"},"id":35}