{"abi":[{"type":"constructor","inputs":[{"name":"_timelock","type":"address","internalType":"address"}],"stateMutability":"nonpayable"},{"type":"receive","stateMutability":"payable"},{"type":"function","name":"attack","inputs":[{"name":"id","type":"bytes32","internalType":"bytes32"}],"outputs":[],"stateMutability":"nonpayable"},{"type":"function","name":"timelock","inputs":[],"outputs":[{"name":"","type":"address","internalType":"address"}],"stateMutability":"view"}],"bytecode":{"object":"0x608060405234801561000f575f5ffd5b5060405161033a38038061033a833981810160405281019061003191906100d4565b805f5f6101000a81548173ffffffffffffffffffffffffffffffffffffffff021916908373ffffffffffffffffffffffffffffffffffffffff160217905550506100ff565b5f5ffd5b5f73ffffffffffffffffffffffffffffffffffffffff82169050919050565b5f6100a38261007a565b9050919050565b6100b381610099565b81146100bd575f5ffd5b50565b5f815190506100ce816100aa565b92915050565b5f602082840312156100e9576100e8610076565b5b5f6100f6848285016100c0565b91505092915050565b61022e8061010c5f395ff3fe60806040526004361061002c575f3560e01c80637ffc6d7314610037578063d33219b41461005f57610033565b3661003357005b5f5ffd5b348015610042575f5ffd5b5061005d6004803603810190610058919061014d565b610089565b005b34801561006a575f5ffd5b506100736100f2565b60405161008091906101b7565b60405180910390f35b3373ffffffffffffffffffffffffffffffffffffffff1663e751f271826040518263ffffffff1660e01b81526004016100c291906101df565b5f604051808303815f87803b1580156100d9575f5ffd5b505af11580156100eb573d5f5f3e3d5ffd5b5050505050565b5f5f9054906101000a900473ffffffffffffffffffffffffffffffffffffffff1681565b5f5ffd5b5f819050919050565b61012c8161011a565b8114610136575f5ffd5b50565b5f8135905061014781610123565b92915050565b5f6020828403121561016257610161610116565b5b5f61016f84828501610139565b91505092915050565b5f73ffffffffffffffffffffffffffffffffffffffff82169050919050565b5f6101a182610178565b9050919050565b6101b181610197565b82525050565b5f6020820190506101ca5f8301846101a8565b92915050565b6101d98161011a565b82525050565b5f6020820190506101f25f8301846101d0565b9291505056fea2646970667358221220e3fa6b670efbb9931b5dbc34a4a760c91a1e7027628b986a635828c28a01ec5b64736f6c63430008210033","linkReferences":{}},"methodIdentifiers":{"attack(bytes32)":"7ffc6d73","timelock()":"d33219b4"},"id":32}