{"abi":[{"type":"constructor","inputs":[{"name":"_registry","type":"address","internalType":"address"}],"stateMutability":"nonpayable"},{"type":"receive","stateMutability":"payable"},{"type":"function","name":"claim","inputs":[{"name":"index","type":"uint256","internalType":"uint256"},{"name":"account","type":"address","internalType":"address"},{"name":"amount","type":"uint256","internalType":"uint256"},{"name":"proof","type":"bytes32[]","internalType":"bytes32[]"}],"outputs":[],"stateMutability":"nonpayable"},{"type":"function","name":"isClaimed","inputs":[{"name":"","type":"uint256","internalType":"uint256"}],"outputs":[{"name":"","type":"bool","internalType":"bool"}],"stateMutability":"view"},{"type":"function","name":"merkleRoot","inputs":[],"outputs":[{"name":"","type":"bytes32","internalType":"bytes32"}],"stateMutability":"view"},{"type":"function","name":"registry","inputs":[],"outputs":[{"name":"","type":"address","internalType":"contract IAresRegistry"}],"stateMutability":"view"},{"type":"function","name":"updateRoot","inputs":[{"name":"newRoot","type":"bytes32","internalType":"bytes32"}],"outputs":[],"stateMutability":"nonpayable"},{"type":"event","name":"Claimed","inputs":[{"name":"index","type":"uint256","indexed":false,"internalType":"uint256"},{"name":"account","type":"address","indexed":false,"internalType":"address"},{"name":"amount","type":"uint256","indexed":false,"internalType":"uint256"}],"anonymous":false},{"type":"event","name":"RootUpdated","inputs":[{"name":"newRoot","type":"bytes32","indexed":false,"internalType":"bytes32"}],"anonymous":false},{"type":"error","name":"AlreadyClaimed","inputs":[]},{"type":"error","name":"InvalidProof","inputs":[]},{"type":"error","name":"NotTimelock","inputs":[]}],"bytecode":{"object":"0x608060405234801561000f575f5ffd5b50604051610bce380380610bce833981810160405281019061003191906100d4565b805f5f6101000a81548173ffffffffffffffffffffffffffffffffffffffff021916908373ffffffffffffffffffffffffffffffffffffffff160217905550506100ff565b5f5ffd5b5f73ffffffffffffffffffffffffffffffffffffffff82169050919050565b5f6100a38261007a565b9050919050565b6100b381610099565b81146100bd575f5ffd5b50565b5f815190506100ce816100aa565b92915050565b5f602082840312156100e9576100e8610076565b5b5f6100f6848285016100c0565b91505092915050565b610ac28061010c5f395ff3fe60806040526004361061004d575f3560e01c806321ff9970146100585780632e7ba6ef146100805780632eb4a7ab146100a85780637b103999146100d25780639e34070f146100fc57610054565b3661005457005b5f5ffd5b348015610063575f5ffd5b5061007e600480360381019061007991906105dc565b610138565b005b34801561008b575f5ffd5b506100a660048036038101906100a191906106f5565b61029a565b005b3480156100b3575f5ffd5b506100bc6104b5565b6040516100c99190610788565b60405180910390f35b3480156100dd575f5ffd5b506100e66104bb565b6040516100f391906107fc565b60405180910390f35b348015610107575f5ffd5b50610122600480360381019061011d9190610815565b6104df565b60405161012f919061085a565b60405180910390f35b5f5f5f9054906101000a900473ffffffffffffffffffffffffffffffffffffffff1673ffffffffffffffffffffffffffffffffffffffff166385acd6417f30511fbdae01ddcbc4ea0ed7f891afd910da919c15474a3753d392a2b9da3a0a6040518263ffffffff1660e01b81526004016101b29190610788565b602060405180830381865afa1580156101cd573d5f5f3e3d5ffd5b505050506040513d601f19601f820116820180604052508101906101f19190610887565b90508073ffffffffffffffffffffffffffffffffffffffff163373ffffffffffffffffffffffffffffffffffffffff1614610258576040517fcad4da2a00000000000000000000000000000000000000000000000000000000815260040160405180910390fd5b816001819055507f2cbc14f49c068133583f7cb530018af451c87c1cf1327cf2a4ff4698c4730aa48260405161028e9190610788565b60405180910390a15050565b60025f8681526020019081526020015f205f9054906101000a900460ff16156102ef576040517f646cf55800000000000000000000000000000000000000000000000000000000815260040160405180910390fd5b5f85858560405160200161030593929190610917565b60405160208183030381529060405280519060200120905061036a8383808060200260200160405190810160405280939291908181526020018383602002808284375f81840152601f19601f82011690508083019250505050505050600154836104fc565b6103a0576040517f09bde33900000000000000000000000000000000000000000000000000000000815260040160405180910390fd5b600160025f8881526020019081526020015f205f6101000a81548160ff0219169083151502179055505f8573ffffffffffffffffffffffffffffffffffffffff16856040516103ee90610980565b5f6040518083038185875af1925050503d805f8114610428576040519150601f19603f3d011682016040523d82523d5f602084013e61042d565b606091505b5050905080610471576040517f08c379a0000000000000000000000000000000000000000000000000000000008152600401610468906109ee565b60405180910390fd5b7f4ec90e965519d92681267467f775ada5bd214aa92c0dc93d90a5e880ce9ed0268787876040516104a493929190610a2a565b60405180910390a150505050505050565b60015481565b5f5f9054906101000a900473ffffffffffffffffffffffffffffffffffffffff1681565b6002602052805f5260405f205f915054906101000a900460ff1681565b5f826105088584610512565b1490509392505050565b5f5f8290505f5f90505b8451811015610558576105498286838151811061053c5761053b610a5f565b5b6020026020010151610563565b9150808060010191505061051c565b508091505092915050565b5f81831061057a57610575828461058d565b610585565b610584838361058d565b5b905092915050565b5f825f528160205260405f20905092915050565b5f5ffd5b5f5ffd5b5f819050919050565b6105bb816105a9565b81146105c5575f5ffd5b50565b5f813590506105d6816105b2565b92915050565b5f602082840312156105f1576105f06105a1565b5b5f6105fe848285016105c8565b91505092915050565b5f819050919050565b61061981610607565b8114610623575f5ffd5b50565b5f8135905061063481610610565b92915050565b5f73ffffffffffffffffffffffffffffffffffffffff82169050919050565b5f6106638261063a565b9050919050565b61067381610659565b811461067d575f5ffd5b50565b5f8135905061068e8161066a565b92915050565b5f5ffd5b5f5ffd5b5f5ffd5b5f5f83601f8401126106b5576106b4610694565b5b8235905067ffffffffffffffff8111156106d2576106d1610698565b5b6020830191508360208202830111156106ee576106ed61069c565b5b9250929050565b5f5f5f5f5f6080868803121561070e5761070d6105a1565b5b5f61071b88828901610626565b955050602061072c88828901610680565b945050604061073d88828901610626565b935050606086013567ffffffffffffffff81111561075e5761075d6105a5565b5b61076a888289016106a0565b92509250509295509295909350565b610782816105a9565b82525050565b5f60208201905061079b5f830184610779565b92915050565b5f819050919050565b5f6107c46107bf6107ba8461063a565b6107a1565b61063a565b9050919050565b5f6107d5826107aa565b9050919050565b5f6107e6826107cb565b9050919050565b6107f6816107dc565b82525050565b5f60208201905061080f5f8301846107ed565b92915050565b5f6020828403121561082a576108296105a1565b5b5f61083784828501610626565b91505092915050565b5f8115159050919050565b61085481610840565b82525050565b5f60208201905061086d5f83018461084b565b92915050565b5f815190506108818161066a565b92915050565b5f6020828403121561089c5761089b6105a1565b5b5f6108a984828501610873565b91505092915050565b5f819050919050565b6108cc6108c782610607565b6108b2565b82525050565b5f8160601b9050919050565b5f6108e8826108d2565b9050919050565b5f6108f9826108de565b9050919050565b61091161090c82610659565b6108ef565b82525050565b5f61092282866108bb565b6020820191506109328285610900565b60148201915061094282846108bb565b602082019150819050949350505050565b5f81905092915050565b50565b5f61096b5f83610953565b91506109768261095d565b5f82019050919050565b5f61098a82610960565b9150819050919050565b5f82825260208201905092915050565b7f4554485f5452414e534645525f4641494c4544000000000000000000000000005f82015250565b5f6109d8601383610994565b91506109e3826109a4565b602082019050919050565b5f6020820190508181035f830152610a05816109cc565b9050919050565b610a1581610607565b82525050565b610a2481610659565b82525050565b5f606082019050610a3d5f830186610a0c565b610a4a6020830185610a1b565b610a576040830184610a0c565b949350505050565b7f4e487b71000000000000000000000000000000000000000000000000000000005f52603260045260245ffdfea264697066735822122066de0fcf30dbba1a2422ad597611b1a953daa3982a76b2a09887c3c22b206da864736f6c63430008210033","linkReferences":{}},"methodIdentifiers":{"claim(uint256,address,uint256,bytes32[])":"2e7ba6ef","isClaimed(uint256)":"9e34070f","merkleRoot()":"2eb4a7ab","registry()":"7b103999","updateRoot(bytes32)":"21ff9970"},"id":15}