{"abi":[{"type":"constructor","inputs":[{"name":"_registry","type":"address","internalType":"address"}],"stateMutability":"nonpayable"},{"type":"receive","stateMutability":"payable"},{"type":"function","name":"claim","inputs":[{"name":"index","type":"uint256","internalType":"uint256"},{"name":"account","type":"address","internalType":"address"},{"name":"amount","type":"uint256","internalType":"uint256"},{"name":"proof","type":"bytes32[]","internalType":"bytes32[]"}],"outputs":[],"stateMutability":"nonpayable"},{"type":"function","name":"isClaimed","inputs":[{"name":"","type":"uint256","internalType":"uint256"}],"outputs":[{"name":"","type":"bool","internalType":"bool"}],"stateMutability":"view"},{"type":"function","name":"merkleRoot","inputs":[],"outputs":[{"name":"","type":"bytes32","internalType":"bytes32"}],"stateMutability":"view"},{"type":"function","name":"registry","inputs":[],"outputs":[{"name":"","type":"address","internalType":"contract IAresRegistry"}],"stateMutability":"view"},{"type":"function","name":"updateRoot","inputs":[{"name":"newRoot","type":"bytes32","internalType":"bytes32"}],"outputs":[],"stateMutability":"nonpayable"},{"type":"event","name":"Claimed","inputs":[{"name":"index","type":"uint256","indexed":false,"internalType":"uint256"},{"name":"account","type":"address","indexed":false,"internalType":"address"},{"name":"amount","type":"uint256","indexed":false,"internalType":"uint256"}],"anonymous":false},{"type":"event","name":"RootUpdated","inputs":[{"name":"newRoot","type":"bytes32","indexed":false,"internalType":"bytes32"}],"anonymous":false},{"type":"error","name":"AlreadyClaimed","inputs":[]},{"type":"error","name":"InvalidProof","inputs":[]},{"type":"error","name":"NotTimelock","inputs":[]}],"bytecode":{"object":"0x608060405234801561000f575f5ffd5b50604051610bd8380380610bd8833981810160405281019061003191906100d4565b805f5f6101000a81548173ffffffffffffffffffffffffffffffffffffffff021916908373ffffffffffffffffffffffffffffffffffffffff160217905550506100ff565b5f5ffd5b5f73ffffffffffffffffffffffffffffffffffffffff82169050919050565b5f6100a38261007a565b9050919050565b6100b381610099565b81146100bd575f5ffd5b50565b5f815190506100ce816100aa565b92915050565b5f602082840312156100e9576100e8610076565b5b5f6100f6848285016100c0565b91505092915050565b610acc8061010c5f395ff3fe60806040526004361061004d575f3560e01c806321ff9970146100585780632e7ba6ef146100805780632eb4a7ab146100a85780637b103999146100d25780639e34070f146100fc57610054565b3661005457005b5f5ffd5b348015610063575f5ffd5b5061007e600480360381019061007991906105e6565b610138565b005b34801561008b575f5ffd5b506100a660048036038101906100a191906106ff565b610181565b005b3480156100b3575f5ffd5b506100bc61039c565b6040516100c99190610792565b60405180910390f35b3480156100dd575f5ffd5b506100e66103a2565b6040516100f39190610806565b60405180910390f35b348015610107575f5ffd5b50610122600480360381019061011d919061081f565b6103c6565b60405161012f9190610864565b60405180910390f35b6101406103e3565b806001819055507f2cbc14f49c068133583f7cb530018af451c87c1cf1327cf2a4ff4698c4730aa4816040516101769190610792565b60405180910390a150565b60025f8681526020019081526020015f205f9054906101000a900460ff16156101d6576040517f646cf55800000000000000000000000000000000000000000000000000000000815260040160405180910390fd5b5f8585856040516020016101ec939291906108e2565b6040516020818303038152906040528051906020012090506102518383808060200260200160405190810160405280939291908181526020018383602002808284375f81840152601f19601f8201169050808301925050505050505060015483610506565b610287576040517f09bde33900000000000000000000000000000000000000000000000000000000815260040160405180910390fd5b600160025f8881526020019081526020015f205f6101000a81548160ff0219169083151502179055505f8573ffffffffffffffffffffffffffffffffffffffff16856040516102d59061094b565b5f6040518083038185875af1925050503d805f811461030f576040519150601f19603f3d011682016040523d82523d5f602084013e610314565b606091505b5050905080610358576040517f08c379a000000000000000000000000000000000000000000000000000000000815260040161034f906109b9565b60405180910390fd5b7f4ec90e965519d92681267467f775ada5bd214aa92c0dc93d90a5e880ce9ed02687878760405161038b939291906109f5565b60405180910390a150505050505050565b60015481565b5f5f9054906101000a900473ffffffffffffffffffffffffffffffffffffffff1681565b6002602052805f5260405f205f915054906101000a900460ff1681565b5f5f5f9054906101000a900473ffffffffffffffffffffffffffffffffffffffff1673ffffffffffffffffffffffffffffffffffffffff166385acd6417f30511fbdae01ddcbc4ea0ed7f891afd910da919c15474a3753d392a2b9da3a0a6040518263ffffffff1660e01b815260040161045d9190610792565b602060405180830381865afa158015610478573d5f5f3e3d5ffd5b505050506040513d601f19601f8201168201806040525081019061049c9190610a3e565b90508073ffffffffffffffffffffffffffffffffffffffff163373ffffffffffffffffffffffffffffffffffffffff1614610503576040517fcad4da2a00000000000000000000000000000000000000000000000000000000815260040160405180910390fd5b50565b5f82610512858461051c565b1490509392505050565b5f5f8290505f5f90505b8451811015610562576105538286838151811061054657610545610a69565b5b602002602001015161056d565b91508080600101915050610526565b508091505092915050565b5f8183106105845761057f8284610597565b61058f565b61058e8383610597565b5b905092915050565b5f825f528160205260405f20905092915050565b5f5ffd5b5f5ffd5b5f819050919050565b6105c5816105b3565b81146105cf575f5ffd5b50565b5f813590506105e0816105bc565b92915050565b5f602082840312156105fb576105fa6105ab565b5b5f610608848285016105d2565b91505092915050565b5f819050919050565b61062381610611565b811461062d575f5ffd5b50565b5f8135905061063e8161061a565b92915050565b5f73ffffffffffffffffffffffffffffffffffffffff82169050919050565b5f61066d82610644565b9050919050565b61067d81610663565b8114610687575f5ffd5b50565b5f8135905061069881610674565b92915050565b5f5ffd5b5f5ffd5b5f5ffd5b5f5f83601f8401126106bf576106be61069e565b5b8235905067ffffffffffffffff8111156106dc576106db6106a2565b5b6020830191508360208202830111156106f8576106f76106a6565b5b9250929050565b5f5f5f5f5f60808688031215610718576107176105ab565b5b5f61072588828901610630565b95505060206107368882890161068a565b945050604061074788828901610630565b935050606086013567ffffffffffffffff811115610768576107676105af565b5b610774888289016106aa565b92509250509295509295909350565b61078c816105b3565b82525050565b5f6020820190506107a55f830184610783565b92915050565b5f819050919050565b5f6107ce6107c96107c484610644565b6107ab565b610644565b9050919050565b5f6107df826107b4565b9050919050565b5f6107f0826107d5565b9050919050565b610800816107e6565b82525050565b5f6020820190506108195f8301846107f7565b92915050565b5f60208284031215610834576108336105ab565b5b5f61084184828501610630565b91505092915050565b5f8115159050919050565b61085e8161084a565b82525050565b5f6020820190506108775f830184610855565b92915050565b5f819050919050565b61089761089282610611565b61087d565b82525050565b5f8160601b9050919050565b5f6108b38261089d565b9050919050565b5f6108c4826108a9565b9050919050565b6108dc6108d782610663565b6108ba565b82525050565b5f6108ed8286610886565b6020820191506108fd82856108cb565b60148201915061090d8284610886565b602082019150819050949350505050565b5f81905092915050565b50565b5f6109365f8361091e565b915061094182610928565b5f82019050919050565b5f6109558261092b565b9150819050919050565b5f82825260208201905092915050565b7f4554485f5452414e534645525f4641494c4544000000000000000000000000005f82015250565b5f6109a360138361095f565b91506109ae8261096f565b602082019050919050565b5f6020820190508181035f8301526109d081610997565b9050919050565b6109e081610611565b82525050565b6109ef81610663565b82525050565b5f606082019050610a085f8301866109d7565b610a1560208301856109e6565b610a2260408301846109d7565b949350505050565b5f81519050610a3881610674565b92915050565b5f60208284031215610a5357610a526105ab565b5b5f610a6084828501610a2a565b91505092915050565b7f4e487b71000000000000000000000000000000000000000000000000000000005f52603260045260245ffdfea26469706673582212200686245d4a8b41fb3c27cc05d31e2572bc387dd317ea2f9631f451f90a96844964736f6c63430008210033","linkReferences":{}},"methodIdentifiers":{"claim(uint256,address,uint256,bytes32[])":"2e7ba6ef","isClaimed(uint256)":"9e34070f","merkleRoot()":"2eb4a7ab","registry()":"7b103999","updateRoot(bytes32)":"21ff9970"},"id":36}